{
  "contractName": "SmartBond",
  "abi": [
    {
      "inputs": [
        {
          "internalType": "string",
          "name": "_name",
          "type": "string"
        },
        {
          "internalType": "uint256",
          "name": "_par",
          "type": "uint256"
        },
        {
          "internalType": "uint256",
          "name": "_parDecimals",
          "type": "uint256"
        },
        {
          "internalType": "uint256",
          "name": "_coupon",
          "type": "uint256"
        },
        {
          "internalType": "uint256",
          "name": "_term",
          "type": "uint256"
        },
        {
          "internalType": "uint256",
          "name": "_cap",
          "type": "uint256"
        },
        {
          "internalType": "uint256",
          "name": "_timesToRedeem",
          "type": "uint256"
        },
        {
          "internalType": "address",
          "name": "_tokenToRedeem",
          "type": "address"
        },
        {
          "internalType": "uint256",
          "name": "_loopLimit",
          "type": "uint256"
        }
      ],
      "stateMutability": "nonpayable",
      "type": "constructor"
    },
    {
      "anonymous": false,
      "inputs": [
        {
          "indexed": false,
          "internalType": "address",
          "name": "buyer",
          "type": "address"
        },
        {
          "indexed": false,
          "internalType": "uint256",
          "name": "bondsAmount",
          "type": "uint256"
        }
      ],
      "name": "MintedBond",
      "type": "event"
    },
    {
      "anonymous": false,
      "inputs": [
        {
          "indexed": true,
          "internalType": "address",
          "name": "previousOwner",
          "type": "address"
        },
        {
          "indexed": true,
          "internalType": "address",
          "name": "newOwner",
          "type": "address"
        }
      ],
      "name": "OwnershipTransferred",
      "type": "event"
    },
    {
      "anonymous": false,
      "inputs": [
        {
          "indexed": true,
          "internalType": "address",
          "name": "caller",
          "type": "address"
        },
        {
          "indexed": false,
          "internalType": "uint256[]",
          "name": "bonds",
          "type": "uint256[]"
        }
      ],
      "name": "RedeemedCoupons",
      "type": "event"
    },
    {
      "anonymous": false,
      "inputs": [
        {
          "indexed": true,
          "internalType": "address",
          "name": "from",
          "type": "address"
        },
        {
          "indexed": true,
          "internalType": "address",
          "name": "to",
          "type": "address"
        },
        {
          "indexed": false,
          "internalType": "uint256[]",
          "name": "bonds",
          "type": "uint256[]"
        }
      ],
      "name": "Transferred",
      "type": "event"
    },
    {
      "inputs": [],
      "name": "loopLimit",
      "outputs": [
        {
          "internalType": "uint256",
          "name": "",
          "type": "uint256"
        }
      ],
      "stateMutability": "view",
      "type": "function"
    },
    {
      "inputs": [],
      "name": "owner",
      "outputs": [
        {
          "internalType": "address",
          "name": "",
          "type": "address"
        }
      ],
      "stateMutability": "view",
      "type": "function"
    },
    {
      "inputs": [],
      "name": "renounceOwnership",
      "outputs": [],
      "stateMutability": "nonpayable",
      "type": "function"
    },
    {
      "inputs": [
        {
          "internalType": "address",
          "name": "newOwner",
          "type": "address"
        }
      ],
      "name": "transferOwnership",
      "outputs": [],
      "stateMutability": "nonpayable",
      "type": "function"
    },
    {
      "stateMutability": "payable",
      "type": "receive"
    },
    {
      "inputs": [
        {
          "internalType": "uint256",
          "name": "_loopLimit",
          "type": "uint256"
        }
      ],
      "name": "changeLoopLimit",
      "outputs": [],
      "stateMutability": "nonpayable",
      "type": "function"
    },
    {
      "inputs": [
        {
          "internalType": "address",
          "name": "buyer",
          "type": "address"
        },
        {
          "internalType": "uint256",
          "name": "_bondsAmount",
          "type": "uint256"
        }
      ],
      "name": "mintBond",
      "outputs": [],
      "stateMutability": "nonpayable",
      "type": "function"
    },
    {
      "inputs": [
        {
          "internalType": "uint256[]",
          "name": "_bonds",
          "type": "uint256[]"
        }
      ],
      "name": "redeemCoupons",
      "outputs": [],
      "stateMutability": "nonpayable",
      "type": "function"
    },
    {
      "inputs": [
        {
          "internalType": "address",
          "name": "receiver",
          "type": "address"
        },
        {
          "internalType": "uint256[]",
          "name": "_bonds",
          "type": "uint256[]"
        }
      ],
      "name": "transfer",
      "outputs": [],
      "stateMutability": "nonpayable",
      "type": "function"
    },
    {
      "inputs": [],
      "name": "donate",
      "outputs": [],
      "stateMutability": "payable",
      "type": "function"
    },
    {
      "inputs": [
        {
          "internalType": "uint256",
          "name": "bond",
          "type": "uint256"
        }
      ],
      "name": "getLastTimeRedeemed",
      "outputs": [
        {
          "internalType": "uint256",
          "name": "",
          "type": "uint256"
        }
      ],
      "stateMutability": "view",
      "type": "function"
    },
    {
      "inputs": [
        {
          "internalType": "uint256",
          "name": "bond",
          "type": "uint256"
        }
      ],
      "name": "getRemainingCoupons",
      "outputs": [
        {
          "internalType": "int256",
          "name": "",
          "type": "int256"
        }
      ],
      "stateMutability": "view",
      "type": "function"
    },
    {
      "inputs": [],
      "name": "getTokenAddress",
      "outputs": [
        {
          "internalType": "address",
          "name": "",
          "type": "address"
        }
      ],
      "stateMutability": "view",
      "type": "function"
    },
    {
      "inputs": [],
      "name": "getTimesToRedeem",
      "outputs": [
        {
          "internalType": "uint256",
          "name": "",
          "type": "uint256"
        }
      ],
      "stateMutability": "view",
      "type": "function"
    },
    {
      "inputs": [],
      "name": "getTerm",
      "outputs": [
        {
          "internalType": "uint256",
          "name": "",
          "type": "uint256"
        }
      ],
      "stateMutability": "view",
      "type": "function"
    },
    {
      "inputs": [
        {
          "internalType": "uint256",
          "name": "bond",
          "type": "uint256"
        }
      ],
      "name": "getMaturity",
      "outputs": [
        {
          "internalType": "uint256",
          "name": "",
          "type": "uint256"
        }
      ],
      "stateMutability": "view",
      "type": "function"
    },
    {
      "inputs": [],
      "name": "getSimpleInterest",
      "outputs": [
        {
          "internalType": "uint256",
          "name": "",
          "type": "uint256"
        }
      ],
      "stateMutability": "view",
      "type": "function"
    },
    {
      "inputs": [],
      "name": "getCap",
      "outputs": [
        {
          "internalType": "uint256",
          "name": "",
          "type": "uint256"
        }
      ],
      "stateMutability": "view",
      "type": "function"
    },
    {
      "inputs": [],
      "name": "getParDecimals",
      "outputs": [
        {
          "internalType": "uint256",
          "name": "",
          "type": "uint256"
        }
      ],
      "stateMutability": "view",
      "type": "function"
    },
    {
      "inputs": [],
      "name": "getTokenToRedeem",
      "outputs": [
        {
          "internalType": "address",
          "name": "",
          "type": "address"
        }
      ],
      "stateMutability": "view",
      "type": "function"
    },
    {
      "inputs": [],
      "name": "getName",
      "outputs": [
        {
          "internalType": "string",
          "name": "",
          "type": "string"
        }
      ],
      "stateMutability": "view",
      "type": "function"
    },
    {
      "inputs": [],
      "name": "getTotalDebt",
      "outputs": [
        {
          "internalType": "uint256",
          "name": "",
          "type": "uint256"
        }
      ],
      "stateMutability": "view",
      "type": "function"
    },
    {
      "inputs": [],
      "name": "getTotalBonds",
      "outputs": [
        {
          "internalType": "uint256",
          "name": "",
          "type": "uint256"
        }
      ],
      "stateMutability": "view",
      "type": "function"
    },
    {
      "inputs": [],
      "name": "getNonce",
      "outputs": [
        {
          "internalType": "uint256",
          "name": "",
          "type": "uint256"
        }
      ],
      "stateMutability": "view",
      "type": "function"
    },
    {
      "inputs": [],
      "name": "getCouponThreshold",
      "outputs": [
        {
          "internalType": "uint256",
          "name": "",
          "type": "uint256"
        }
      ],
      "stateMutability": "view",
      "type": "function"
    }
  ],
  "bytecode": "0x60806040526000600c556000600d553480156200001b57600080fd5b50604051620019e8380380620019e88339810160408190526200003e91620002c6565b62000064620000556401000000006200016b810204565b6401000000006200016f810204565b60008951116200007357600080fd5b600086116200008157600080fd5b600088116200008f57600080fd5b600085116200009d57600080fd5b60008111620000ab57600080fd5b6001831015620000ba57600080fd5b8851620000cf9060019060208c0190620001d4565b5060078890556006849055600b8190556004879055600a839055600886905560098590556200010d858464010000000062000ec2620001bf82021704565b600d55600160a060020a038216620001405760028054600160a060020a031916600160a060020a0384161790556200015c565b600e8054600160a060020a031916600160a060020a0384161790555b5050505050505050506200048e565b3390565b60008054600160a060020a03838116600160a060020a0319831681178455604051919092169283917f8be0079c531659141344cd1fd0a4f28419497f9722a3daafe3b4186f6b6457e09190a35050565b6000620001cd8284620003fd565b9392505050565b828054620001e29062000439565b90600052602060002090601f01602090048101928262000206576000855562000251565b82601f106200022157805160ff191683800117855562000251565b8280016001018555821562000251579182015b828111156200025157825182559160200191906001019062000234565b506200025f92915062000263565b5090565b5b808211156200025f576000815560010162000264565b7f4e487b7100000000000000000000000000000000000000000000000000000000600052604160045260246000fd5b8051600160a060020a0381168114620002c157600080fd5b919050565b60008060008060008060008060006101208a8c031215620002e657600080fd5b895167ffffffffffffffff80821115620002ff57600080fd5b818c0191508c601f8301126200031457600080fd5b8151818111156200032957620003296200027a565b604051601f8201601f19908116603f011681019083821181831017156200035457620003546200027a565b81604052828152602093508f848487010111156200037157600080fd5b600091505b8282101562000395578482018401518183018501529083019062000376565b82821115620003a75760008484830101525b809d50505050808c01519950505060408a0151965060608a0151955060808a0151945060a08a0151935060c08a01519250620003e660e08b01620002a9565b91506101008a015190509295985092959850929598565b60008262000434577f4e487b7100000000000000000000000000000000000000000000000000000000600052601260045260246000fd5b500490565b6002810460018216806200044e57607f821691505b60208210810362000488577f4e487b7100000000000000000000000000000000000000000000000000000000600052602260045260246000fd5b50919050565b61154a806200049e6000396000f3fe60806040526004361061016c576000357c010000000000000000000000000000000000000000000000000000000090048063715018a6116100d3578063d087d2881161008c578063d087d28814610393578063d87f0afc146103a8578063e0e09e0f146103c8578063e5759436146103dd578063ed88c68e146103f2578063f2fde38b146103fa57600080fd5b8063715018a6146102e85780637a36c307146102fd5780637aafdeee1461031d5780637e55acb4146103325780637f1e7d41146103485780638da5cb5b1461037557600080fd5b806334ce998a1161012557806334ce998a1461024b5780633af0ca191461026057806343b074851461027e578063554d578d1461029e57806366e3d5ac146102b357806370843ae9146102d357600080fd5b80630f0044bf1461017857806310fe9ae8146101ab578063112f84e1146101dd578063124b65b4146101f257806317d7de7c146102075780632b4e4e961461022957600080fd5b3661017357005b600080fd5b34801561018457600080fd5b50610198610193366004611094565b61041a565b6040519081526020015b60405180910390f35b3480156101b757600080fd5b50600e54600160a060020a03165b604051600160a060020a0390911681526020016101a2565b3480156101e957600080fd5b5061019861046c565b3480156101fe57600080fd5b50600954610198565b34801561021357600080fd5b5061021c6104a3565b6040516101a291906110ad565b34801561023557600080fd5b50610249610244366004611169565b610535565b005b34801561025757600080fd5b50600354610198565b34801561026c57600080fd5b50600254600160a060020a03166101c5565b34801561028a57600080fd5b50610198610299366004611094565b610713565b3480156102aa57600080fd5b50600654610198565b3480156102bf57600080fd5b506102496102ce3660046111bc565b610757565b3480156102df57600080fd5b50600d54610198565b3480156102f457600080fd5b506102496109b4565b34801561030957600080fd5b506102496103183660046111e6565b6109ed565b34801561032957600080fd5b50600554610198565b34801561033e57600080fd5b50610198600b5481565b34801561035457600080fd5b50610198610363366004611094565b60009081526010602052604090205490565b34801561038157600080fd5b50600054600160a060020a03166101c5565b34801561039f57600080fd5b50600c54610198565b3480156103b457600080fd5b506102496103c3366004611094565b610db5565b3480156103d457600080fd5b50600454610198565b3480156103e957600080fd5b50600a54610198565b610249610df4565b34801561040657600080fd5b50610249610415366004611228565b610e0a565b6009546000828152601060205260408120549091829161043991610ed7565b600d54600085815260116020526040812054929350916104649161045d9190610ef3565b8390610f29565b949350505050565b60008061047860085490565b9050600061048560075490565b905061049c60646104968385610ef3565b90610ec2565b9250505090565b6060600180546104b290611243565b80601f01602080910402602001604051908101604052809291908181526020018280546104de90611243565b801561052b5780601f106105005761010080835404028352916020019161052b565b820191906000526020600020905b81548152906001019060200180831161050e57829003601f168201915b5050505050905090565b8061053f57600080fd5b600160a060020a03831661055257600080fd5b3360009081526012602052604090205481111561056e57600080fd5b60005b818110156106c05733600f600085858581811061059057610590611280565b6020908102929092013583525081019190915260400160002054600160a060020a03161415806105ec5750600a54601160008585858181106105d4576105d4611280565b90506020020135815260200190815260200160002054145b6106ae5783600f600085858581811061060757610607611280565b602090810292909201358352508181019290925260409081016000908120805473ffffffffffffffffffffffffffffffffffffffff1916600160a060020a0395909516949094179093553383526012909152902054610667906001610ed7565b3360009081526012602052604080822092909255600160a060020a03861681522054610694906001610f29565b600160a060020a0385166000908152601260205260409020555b806106b8816112b2565b915050610571565b5082600160a060020a031633600160a060020a03167f227687bda9848548d0e213bd3dcc76bc21295e33dff6849e2c2bd7c75cb77bf784846040516107069291906112cb565b60405180910390a3505050565b6000818152600f6020526040812054600160a060020a03168061073a575060001992915050565b600083815260116020526040902054600a54610464908290611320565b600054600160a060020a0316331461078d5760405160e560020a62461bcd02815260040161078490611337565b60405180910390fd5b600160a060020a0382166107a057600080fd5b60018110156107ae57600080fd5b600b548111156107bd57600080fd5b600654156107e0576006546005546107d59083610f29565b11156107e057600080fd5b6005546107ed9082610f29565b600555600c546107fd9082610f29565b600c5560005b8181101561090d57600954610819904290610f29565b6010600061083284600c54610ed790919063ffffffff16565b81526020019081526020016000208190555082600f600061085e84600c54610ed790919063ffffffff16565b815260200190815260200160002060006101000a815481600160a060020a030219169083600160a060020a031602179055506000601160006108ab84600c54610ed790919063ffffffff16565b81526020808201929092526040908101600090812093909355600160a060020a038616835260129091529020546108e29083610f29565b600160a060020a03841660009081526012602052604090205580610905816112b2565b915050610803565b5061096b61094b61092983600a54610ef390919063ffffffff16565b6109456064610496600854600754610ef390919063ffffffff16565b90610ef3565b6007546109659061095c9085610ef3565b60035490610f29565b90610f29565b60035560408051600160a060020a0384168152602081018390527ff684d4510acd3fe860087ff339d3668df1f4b82d05e5b4cab07130929bfa835d910160405180910390a15050565b600054600160a060020a031633146109e15760405160e560020a62461bcd02815260040161078490611337565b6109eb6000610f47565b565b806109f757600080fd5b600b54811115610a0657600080fd5b33600090815260126020526040902054811115610a2257600080fd5b6000806000805b84811015610d6a5733600f6000888885818110610a4857610a48611280565b6020908102929092013583525081019190915260400160002054600160a060020a0316141580610aa45750600a5460116000888885818110610a8c57610a8c611280565b90506020020135815260200190815260200160002054145b610d5857610ae860095460106000898986818110610ac457610ac4611280565b90506020020135815260200190815260200160002054610ed790919063ffffffff16565b9350610b34610b2d600d54601160008a8a87818110610b0957610b09611280565b90506020020135815260200190815260200160002054610ef390919063ffffffff16565b8590610f29565b925060106000878784818110610b4c57610b4c611280565b90506020020135815260200190815260200160002054610b77600d5485610f2990919063ffffffff16565b101580610b905750600d54610b8d908490610f29565b42105b610d5857600d54610ba5906104964286610ed7565b91508115610d5857610beb8260116000898986818110610bc757610bc7611280565b90506020020135815260200190815260200160002054610f2990919063ffffffff16565b60116000888885818110610c0157610c01611280565b90506020020135815260200190815260200160002081905550610c60610c5a610c53610c396002600454610f2990919063ffffffff16565b610c4490600a611453565b60085460075461049691610ef3565b8490610ef3565b33610fa4565b600a5460116000888885818110610c7957610c79611280565b9050602002013581526020019081526020016000205403610d58576000600f6000888885818110610cac57610cac611280565b90506020020135815260200190815260200160002060006101000a815481600160a060020a030219169083600160a060020a03160217905550600060106000888885818110610cfd57610cfd611280565b6020908102929092013583525081810192909252604090810160009081209390935533835260129091528120805491610d358361145f565b9190505550610d58610c5a600454600a610d4f9190611453565b60075490610ec2565b80610d62816112b2565b915050610a29565b5033600160a060020a03167f6842ed68604cbaecf495f440b5684cffd179b26f069e5205907f642a1bc91e4d8686604051610da69291906112cb565b60405180910390a25050505050565b600054600160a060020a03163314610de25760405160e560020a62461bcd02815260040161078490611337565b60008111610def57600080fd5b600b55565b600e54600160a060020a0316156109eb57600080fd5b600054600160a060020a03163314610e375760405160e560020a62461bcd02815260040161078490611337565b600160a060020a038116610eb65760405160e560020a62461bcd02815260206004820152602660248201527f4f776e61626c653a206e6577206f776e657220697320746865207a65726f206160448201527f64647265737300000000000000000000000000000000000000000000000000006064820152608401610784565b610ebf81610f47565b50565b6000610ece8284611476565b90505b92915050565b600082821115610ee957610ee961149b565b610ece8284611320565b600082600003610f0557506000610ed1565b610f0f82846114b4565b905081610f1c8483611476565b14610ed157610ed161149b565b6000610f3582846114d3565b905082811015610ed157610ed161149b565b60008054600160a060020a0383811673ffffffffffffffffffffffffffffffffffffffff19831681178455604051919092169283917f8be0079c531659141344cd1fd0a4f28419497f9722a3daafe3b4186f6b6457e09190a35050565b600e54600160a060020a0316610ff057604051600160a060020a0382169083156108fc029084906000818181858888f19350505050158015610fea573d6000803e3d6000fd5b50611080565b600e546040517fa9059cbb00000000000000000000000000000000000000000000000000000000815233600482015260248101849052600160a060020a039091169063a9059cbb906044016020604051808303816000875af115801561105a573d6000803e3d6000fd5b505050506040513d601f19601f8201168201806040525081019061107e91906114eb565b505b60035461108d9083610ed7565b6003555050565b6000602082840312156110a657600080fd5b5035919050565b600060208083528351808285015260005b818110156110da578581018301518582016040015282016110be565b818111156110ec576000604083870101525b50601f01601f1916929092016040019392505050565b8035600160a060020a038116811461111957600080fd5b919050565b60008083601f84011261113057600080fd5b50813567ffffffffffffffff81111561114857600080fd5b602083019150836020808302850101111561116257600080fd5b9250929050565b60008060006040848603121561117e57600080fd5b61118784611102565b9250602084013567ffffffffffffffff8111156111a357600080fd5b6111af8682870161111e565b9497909650939450505050565b600080604083850312156111cf57600080fd5b6111d883611102565b946020939093013593505050565b600080602083850312156111f957600080fd5b823567ffffffffffffffff81111561121057600080fd5b61121c8582860161111e565b90969095509350505050565b60006020828403121561123a57600080fd5b610ece82611102565b60028104600182168061125757607f821691505b60208210810361127a5760e060020a634e487b7102600052602260045260246000fd5b50919050565b60e060020a634e487b7102600052603260045260246000fd5b60e060020a634e487b7102600052601160045260246000fd5b6000600182016112c4576112c4611299565b5060010190565b6020815281602082015260007f07ffffffffffffffffffffffffffffffffffffffffffffffffffffffffffffff83111561130457600080fd5b6020830280856040850137600092016040019182525092915050565b60008282101561133257611332611299565b500390565b6020808252818101527f4f776e61626c653a2063616c6c6572206973206e6f7420746865206f776e6572604082015260600190565b600181815b808511156113a957816000190482111561138d5761138d611299565b8085161561139a57918102915b60029094049390800290611371565b509250929050565b6000826113c057506001610ed1565b816113cd57506000610ed1565b81600181146113e357600281146113ed5761140a565b6001915050610ed1565b60ff8411156113fe576113fe611299565b8360020a915050610ed1565b5060208310610133831016604e8410600b841016171561142d575081810a610ed1565b611437838361136c565b806000190482111561144b5761144b611299565b029392505050565b6000610ece83836113b1565b60008161146e5761146e611299565b506000190190565b6000826114965760e060020a634e487b7102600052601260045260246000fd5b500490565b60e060020a634e487b7102600052600160045260246000fd5b60008160001904831182151516156114ce576114ce611299565b500290565b600082198211156114e6576114e6611299565b500190565b6000602082840312156114fd57600080fd5b8151801515811461150d57600080fd5b939250505056fea2646970667358221220ed0016ac0cd9e83dcf5e98d2677e6182d52109ce33c136f74c1f3520d64f28fc64736f6c634300080e0033",
  "immutableReferences": {},
  "source": "// SPDX-License-Identifier: MIT\r\npragma solidity 0.8.14;\r\n\r\ninterface IERC20 {\r\n    /**\r\n     * @dev Emitted when `value` tokens are moved from one account (`from`) to\r\n     * another (`to`).\r\n     *\r\n     * Note that `value` may be zero.\r\n     */\r\n    event Transfer(address indexed from, address indexed to, uint256 value);\r\n\r\n    /**\r\n     * @dev Emitted when the allowance of a `spender` for an `owner` is set by\r\n     * a call to {approve}. `value` is the new allowance.\r\n     */\r\n    event Approval(address indexed owner, address indexed spender, uint256 value);\r\n\r\n    /**\r\n     * @dev Returns the amount of tokens in existence.\r\n     */\r\n    function totalSupply() external view returns (uint256);\r\n\r\n    /**\r\n     * @dev Returns the amount of tokens owned by `account`.\r\n     */\r\n    function balanceOf(address account) external view returns (uint256);\r\n\r\n    /**\r\n     * @dev Moves `amount` tokens from the caller's account to `to`.\r\n     *\r\n     * Returns a boolean value indicating whether the operation succeeded.\r\n     *\r\n     * Emits a {Transfer} event.\r\n     */\r\n    function transfer(address to, uint256 amount) external returns (bool);\r\n\r\n    /**\r\n     * @dev Returns the remaining number of tokens that `spender` will be\r\n     * allowed to spend on behalf of `owner` through {transferFrom}. This is\r\n     * zero by default.\r\n     *\r\n     * This value changes when {approve} or {transferFrom} are called.\r\n     */\r\n    function allowance(address owner, address spender) external view returns (uint256);\r\n\r\n    /**\r\n     * @dev Sets `amount` as the allowance of `spender` over the caller's tokens.\r\n     *\r\n     * Returns a boolean value indicating whether the operation succeeded.\r\n     *\r\n     * IMPORTANT: Beware that changing an allowance with this method brings the risk\r\n     * that someone may use both the old and the new allowance by unfortunate\r\n     * transaction ordering. One possible solution to mitigate this race\r\n     * condition is to first reduce the spender's allowance to 0 and set the\r\n     * desired value afterwards:\r\n     * https://github.com/ethereum/EIPs/issues/20#issuecomment-263524729\r\n     *\r\n     * Emits an {Approval} event.\r\n     */\r\n    function approve(address spender, uint256 amount) external returns (bool);\r\n\r\n    /**\r\n     * @dev Moves `amount` tokens from `from` to `to` using the\r\n     * allowance mechanism. `amount` is then deducted from the caller's\r\n     * allowance.\r\n     *\r\n     * Returns a boolean value indicating whether the operation succeeded.\r\n     *\r\n     * Emits a {Transfer} event.\r\n     */\r\n    function transferFrom(\r\n        address from,\r\n        address to,\r\n        uint256 amount\r\n    ) external returns (bool);\r\n}\r\n\r\nabstract contract Context {\r\n    function _msgSender() internal view virtual returns (address) {\r\n        return msg.sender;\r\n    }\r\n\r\n    function _msgData() internal view virtual returns (bytes calldata) {\r\n        return msg.data;\r\n    }\r\n}\r\n\r\nabstract contract Ownable is Context {\r\n    address private _owner;\r\n\r\n    event OwnershipTransferred(address indexed previousOwner, address indexed newOwner);\r\n\r\n    /**\r\n     * @dev Initializes the contract setting the deployer as the initial owner.\r\n     */\r\n    constructor() {\r\n        _transferOwnership(_msgSender());\r\n    }\r\n\r\n    /**\r\n     * @dev Returns the address of the current owner.\r\n     */\r\n    function owner() public view virtual returns (address) {\r\n        return _owner;\r\n    }\r\n\r\n    /**\r\n     * @dev Throws if called by any account other than the owner.\r\n     */\r\n    modifier onlyOwner() {\r\n        require(owner() == _msgSender(), \"Ownable: caller is not the owner\");\r\n        _;\r\n    }\r\n\r\n    /**\r\n     * @dev Leaves the contract without owner. It will not be possible to call\r\n     * `onlyOwner` functions anymore. Can only be called by the current owner.\r\n     *\r\n     * NOTE: Renouncing ownership will leave the contract without an owner,\r\n     * thereby removing any functionality that is only available to the owner.\r\n     */\r\n    function renounceOwnership() public virtual onlyOwner {\r\n        _transferOwnership(address(0));\r\n    }\r\n\r\n    /**\r\n     * @dev Transfers ownership of the contract to a new account (`newOwner`).\r\n     * Can only be called by the current owner.\r\n     */\r\n    function transferOwnership(address newOwner) public virtual onlyOwner {\r\n        require(newOwner != address(0), \"Ownable: new owner is the zero address\");\r\n        _transferOwnership(newOwner);\r\n    }\r\n\r\n    /**\r\n     * @dev Transfers ownership of the contract to a new account (`newOwner`).\r\n     * Internal function without access restriction.\r\n     */\r\n    function _transferOwnership(address newOwner) internal virtual {\r\n        address oldOwner = _owner;\r\n        _owner = newOwner;\r\n        emit OwnershipTransferred(oldOwner, newOwner);\r\n    }\r\n}\r\n\r\nlibrary SafeMath {\r\n\r\n  /**\r\n  * @dev Multiplies two numbers, throws on overflow.\r\n  */\r\n  function mul(uint256 _a, uint256 _b) internal pure returns (uint256 c) {\r\n    // Gas optimization: this is cheaper than asserting 'a' not being zero, but the\r\n    // benefit is lost if 'b' is also tested.\r\n    // See: https://github.com/OpenZeppelin/openzeppelin-solidity/pull/522\r\n    if (_a == 0) {\r\n      return 0;\r\n    }\r\n\r\n    c = _a * _b;\r\n    assert(c / _a == _b);\r\n    return c;\r\n  }\r\n\r\n  /**\r\n  * @dev Integer division of two numbers, truncating the quotient.\r\n  */\r\n  function div(uint256 _a, uint256 _b) internal pure returns (uint256) {\r\n    // assert(_b > 0); // Solidity automatically throws when dividing by 0\r\n    // uint256 c = _a / _b;\r\n    // assert(_a == _b * c + _a % _b); // There is no case in which this doesn't hold\r\n    return _a / _b;\r\n  }\r\n\r\n  /**\r\n  * @dev Subtracts two numbers, throws on overflow (i.e. if subtrahend is greater than minuend).\r\n  */\r\n  function sub(uint256 _a, uint256 _b) internal pure returns (uint256) {\r\n    assert(_b <= _a);\r\n    return _a - _b;\r\n  }\r\n\r\n  /**\r\n  * @dev Adds two numbers, throws on overflow.\r\n  */\r\n  function add(uint256 _a, uint256 _b) internal pure returns (uint256 c) {\r\n    c = _a + _b;\r\n    assert(c >= _a);\r\n    return c;\r\n  }\r\n}\r\n\r\ncontract SmartBond is Ownable {\r\n    using SafeMath for uint256;\r\n    string name;\r\n    address tokenToRedeem;\r\n    uint256 totalDebt;\r\n    uint256 parDecimals;\r\n    uint256 bondsNumber;\r\n    uint256 cap;\r\n    uint256 parValue;\r\n    uint256 couponRate;\r\n    uint256 term;\r\n    uint256 timesToRedeem;\r\n    uint256 public loopLimit;\r\n    uint256 nonce = 0;\r\n    uint256 couponThreshold = 0;\r\n    IERC20 token;\r\n    mapping(uint256 => address) bonds;\r\n    mapping(uint256 => uint256) maturities;\r\n    mapping(uint256 => uint256) couponsRedeemed;\r\n    mapping(address => uint256) bondsAmount;\r\n\r\n    event MintedBond(address buyer, uint256 bondsAmount);\r\n    event RedeemedCoupons(address indexed caller, uint256[] bonds);\r\n    event Transferred(address indexed from, address indexed to, uint256[] bonds);\r\n\r\n    constructor(\r\n        string memory _name, \r\n        uint256 _par, \r\n        uint256 _parDecimals, \r\n        uint256 _coupon,\r\n        uint256 _term, \r\n        uint256 _cap, \r\n        uint256 _timesToRedeem, \r\n        address _tokenToRedeem,\r\n        uint256 _loopLimit\r\n    ) {\r\n        require(bytes(_name).length > 0);\r\n        require(_coupon > 0);\r\n        require(_par > 0);\r\n        require(_term > 0);\r\n        require(_loopLimit > 0);\r\n        require(_timesToRedeem >= 1);\r\n\r\n        name = _name;\r\n        parValue = _par;\r\n        cap = _cap;\r\n        loopLimit = _loopLimit;\r\n        parDecimals = _parDecimals;\r\n        timesToRedeem = _timesToRedeem;\r\n        couponRate = _coupon;\r\n        term = _term;\r\n        couponThreshold = term.div(timesToRedeem);\r\n\r\n        if (_tokenToRedeem == address(0))\r\n            tokenToRedeem = _tokenToRedeem;\r\n        else\r\n            token = IERC20(_tokenToRedeem);\r\n    }\r\n\r\n    /**\r\n    * @notice Change the number of elements you can loop through in this contract\r\n    * @param _loopLimit The new loop limit\r\n    */\r\n\r\n    function changeLoopLimit(uint256 _loopLimit) external onlyOwner {\r\n        require(_loopLimit > 0);\r\n        loopLimit = _loopLimit;\r\n    }\r\n\r\n    /**\r\n    * @notice Mint bonds to a new buyer\r\n    * @param buyer The buyer of the bonds\r\n    * @param _bondsAmount How many bonds to mint\r\n    */\r\n\r\n    function mintBond(address buyer, uint256 _bondsAmount) external onlyOwner {\r\n        require(buyer != address(0));\r\n        require(_bondsAmount >= 1);\r\n        require(_bondsAmount <= loopLimit);\r\n\r\n        if (cap > 0)\r\n            require(bondsNumber.add(_bondsAmount) <= cap);\r\n\r\n        bondsNumber = bondsNumber.add(_bondsAmount);\r\n        nonce = nonce.add(_bondsAmount);\r\n\r\n        for (uint256 i = 0; i < _bondsAmount; i++) {\r\n            maturities[nonce.sub(i)] = block.timestamp.add(term);\r\n            bonds[nonce.sub(i)] = buyer;\r\n            couponsRedeemed[nonce.sub(i)] = 0;\r\n            bondsAmount[buyer] = bondsAmount[buyer].add(_bondsAmount);\r\n        }\r\n\r\n        totalDebt = totalDebt.add(parValue.mul(_bondsAmount)).add((parValue.mul(couponRate).div(100)).mul(timesToRedeem.mul(_bondsAmount)));\r\n        emit MintedBond(buyer, _bondsAmount);\r\n    }\r\n\r\n    /**\r\n    * @notice Redeem coupons on your bonds\r\n    * @param _bonds An array of bond ids corresponding to the bonds you want to redeem apon\r\n    */\r\n\r\n    function redeemCoupons(uint256[] calldata _bonds) external {\r\n\r\n        require(_bonds.length > 0);\r\n        require(_bonds.length <= loopLimit);\r\n        require(_bonds.length <= getBalance(msg.sender));\r\n\r\n        uint256 issueDate = 0;\r\n        uint256 lastThresholdRedeemed = 0;\r\n        uint256 toRedeem = 0;\r\n\r\n        for (uint256 i = 0; i < _bonds.length; i++) {\r\n            if (bonds[_bonds[i]] != msg.sender || couponsRedeemed[_bonds[i]] == timesToRedeem) continue;\r\n\r\n            issueDate = maturities[_bonds[i]].sub(term);\r\n            lastThresholdRedeemed = issueDate.add(couponsRedeemed[_bonds[i]].mul(couponThreshold));\r\n\r\n            if (lastThresholdRedeemed.add(couponThreshold) >= maturities[_bonds[i]] || block.timestamp < lastThresholdRedeemed.add(couponThreshold)) continue;\r\n\r\n            toRedeem = (block.timestamp.sub(lastThresholdRedeemed)).div(couponThreshold);\r\n\r\n            if (toRedeem == 0) continue;\r\n\r\n            couponsRedeemed[_bonds[i]] = couponsRedeemed[_bonds[i]].add(toRedeem);\r\n            getMoney(toRedeem.mul(parValue.mul(couponRate).div( 10 ** (parDecimals.add(2)) ) ), msg.sender);\r\n\r\n            if (couponsRedeemed[_bonds[i]] == timesToRedeem) {\r\n                bonds[_bonds[i]] = address(0);\r\n                maturities[_bonds[i]] = 0;\r\n                bondsAmount[msg.sender]--;\r\n                getMoney(parValue.div( (10 ** parDecimals) ), msg.sender );\r\n            }\r\n        }\r\n        emit RedeemedCoupons(msg.sender, _bonds);\r\n    }\r\n\r\n    /**\r\n    * @notice Transfer bonds to another address\r\n    * @param receiver The receiver of the bonds\r\n    * @param _bonds The ids of the bonds that you want to transfer\r\n    */\r\n\r\n    function transfer(address receiver, uint256[] calldata _bonds) external {\r\n        require(_bonds.length > 0);\r\n        require(receiver != address(0));\r\n        require(_bonds.length <= getBalance(msg.sender));\r\n\r\n        for (uint256 i = 0; i < _bonds.length; i++) {\r\n            if (bonds[_bonds[i]] != msg.sender || couponsRedeemed[_bonds[i]] == timesToRedeem) continue;\r\n\r\n            bonds[_bonds[i]] = receiver;\r\n            bondsAmount[msg.sender] = bondsAmount[msg.sender].sub(1);\r\n            bondsAmount[receiver] = bondsAmount[receiver].add(1);\r\n        }\r\n\r\n        emit Transferred(msg.sender, receiver, _bonds);\r\n    }\r\n\r\n    /**\r\n    * @notice Donate money to this contract\r\n    */\r\n\r\n    function donate() external payable {\r\n        require(address(token) == address(0));\r\n    }\r\n\r\n    // function() payable { revert(); }\r\n    receive() external payable {}\r\n\r\n    //PRIVATE\r\n\r\n    /**\r\n    * @notice Transfer coupon money to an address\r\n    * @param amount The amount of money to be transferred\r\n    * @param receiver The address which will receive the money\r\n    */\r\n\r\n    function getMoney(uint256 amount, address receiver) internal {\r\n        if (address(token) == address(0))\r\n            payable(receiver).transfer(amount);\r\n        else\r\n            token.transfer(msg.sender, amount);\r\n\r\n        totalDebt = totalDebt.sub(amount);\r\n    }\r\n\r\n    //GETTERS\r\n\r\n    /**\r\n    * @dev Get the last time coupons for a particular bond were redeemed\r\n    * @param bond The bond id to analyze\r\n    */\r\n\r\n    function getLastTimeRedeemed(uint256 bond) external view returns (uint256) {\r\n        uint256 issueDate = maturities[bond].sub(term);\r\n        uint256 lastThresholdRedeemed = issueDate.add(couponsRedeemed[bond].mul(couponThreshold));\r\n        return lastThresholdRedeemed;\r\n    }\r\n\r\n    /**\r\n    * @dev Get the owner of a specific bond\r\n    * @param bond The bond id to analyze\r\n    */\r\n\r\n    function getBondOwner(uint256 bond) internal view returns (address) {\r\n        return bonds[bond];\r\n    }\r\n\r\n    /**\r\n    * @dev Get how many coupons remain to be redeemed for a specific bond\r\n    * @param bond The bond id to analyze\r\n    */\r\n\r\n    function getRemainingCoupons(uint256 bond) external view returns (int256) {\r\n        address owner = getBondOwner(bond);\r\n        if (owner == address(0)) return -1;\r\n        uint256 redeemed = getCouponsRedeemed(bond);\r\n        return int256(timesToRedeem - redeemed);\r\n    }\r\n\r\n    /**\r\n    * @dev Get how many coupons were redeemed for a specific bond\r\n    * @param bond The bond id to analyze\r\n    */\r\n\r\n    function getCouponsRedeemed(uint256 bond) internal view returns (uint256) {\r\n        return couponsRedeemed[bond];\r\n    }\r\n\r\n    /**\r\n    * @dev Get the address of the token that is redeemed for coupons\r\n    */\r\n\r\n    function getTokenAddress() external view returns (address) {\r\n        return (address(token));\r\n    }\r\n\r\n    /**\r\n    * @dev Get how many times coupons can be redeemed for bonds\r\n    */\r\n\r\n    function getTimesToRedeem() external view returns (uint256) {\r\n        return timesToRedeem;\r\n    }\r\n\r\n    /**\r\n    * @dev Get how much time it takes for a bond to mature\r\n    */\r\n\r\n    function getTerm() external view returns (uint256) {\r\n        return term;\r\n    }\r\n\r\n    /**\r\n    * @dev Get the maturity date for a specific bond\r\n    * @param bond The bond id to analyze\r\n    */\r\n\r\n    function getMaturity(uint256 bond) external view returns (uint256) {\r\n        return maturities[bond];\r\n    }\r\n\r\n    /**\r\n    * @dev Get how much money is redeemed on a coupon\r\n    */\r\n\r\n    function getSimpleInterest() external view returns (uint256) {\r\n        uint256 rate = getCouponRate();\r\n        uint256 par = getParValue();\r\n        return par.mul(rate).div(100);\r\n    }\r\n\r\n    /**\r\n    * @dev Get the yield of a bond\r\n    */\r\n\r\n    function getCouponRate() internal view returns (uint256) {\r\n        return couponRate;\r\n    }\r\n\r\n    /**\r\n    * @dev Get the par value for these bonds\r\n    */\r\n\r\n    function getParValue() internal view returns (uint256) {\r\n        return parValue;\r\n    }\r\n\r\n    /**\r\n    * @dev Get the cap amount for these bonds\r\n    */\r\n\r\n    function getCap() external view returns (uint256) {\r\n        return cap;\r\n    }\r\n\r\n    /**\r\n    * @dev Get amount of bonds that an address has\r\n    * @param who The address to analyze\r\n    */\r\n\r\n    function getBalance(address who) internal view returns (uint256) {\r\n        return bondsAmount[who];\r\n    }\r\n\r\n    /**\r\n    * @dev If the par value is a real number, it might have decimals. Get the amount of decimals the par value has\r\n    */\r\n\r\n    function getParDecimals() external view returns (uint256) {\r\n        return parDecimals;\r\n    }\r\n\r\n    /**\r\n    * @dev Get the address of the token redeemed for coupons\r\n    */\r\n\r\n    function getTokenToRedeem() external view returns (address) {\r\n        return tokenToRedeem;\r\n    }\r\n\r\n    /**\r\n    * @dev Get the name of this smart bond contract\r\n    */\r\n\r\n    function getName() external view returns (string memory) {\r\n        return name;\r\n    }\r\n\r\n    /**\r\n    * @dev Get the current unpaid debt\r\n    */\r\n\r\n    function getTotalDebt() external view returns (uint256) {\r\n        return totalDebt;\r\n    }\r\n\r\n    /**\r\n    * @dev Get the total amount of bonds issued\r\n    */\r\n\r\n    function getTotalBonds() external view returns (uint256) {\r\n        return bondsNumber;\r\n    }\r\n\r\n    /**\r\n    * @dev Get the latest nonce\r\n    */\r\n\r\n    function getNonce() external view returns (uint256) {\r\n        return nonce;\r\n    }\r\n\r\n    /**\r\n    * @dev Get the amount of time that needs to pass between the dates when you can redeem coupons\r\n    */\r\n\r\n    function getCouponThreshold() external view returns (uint256) {\r\n        return couponThreshold;\r\n    }\r\n}",
  "sourcePath": "E:\\develop\\truffle-test\\contracts\\SmartBond.sol",
  "compiler": {
    "name": "solc",
    "version": "0.8.14+commit.80d49f37.Emscripten.clang"
  },
  "schemaVersion": "3.4.4",
  "updatedAt": "2022-06-22T23:20:20.818Z",
  "devdoc": {
    "kind": "dev",
    "methods": {
      "changeLoopLimit(uint256)": {
        "params": {
          "_loopLimit": "The new loop limit"
        }
      },
      "getCap()": {
        "details": "Get the cap amount for these bonds"
      },
      "getCouponThreshold()": {
        "details": "Get the amount of time that needs to pass between the dates when you can redeem coupons"
      },
      "getLastTimeRedeemed(uint256)": {
        "details": "Get the last time coupons for a particular bond were redeemed",
        "params": {
          "bond": "The bond id to analyze"
        }
      },
      "getMaturity(uint256)": {
        "details": "Get the maturity date for a specific bond",
        "params": {
          "bond": "The bond id to analyze"
        }
      },
      "getName()": {
        "details": "Get the name of this smart bond contract"
      },
      "getNonce()": {
        "details": "Get the latest nonce"
      },
      "getParDecimals()": {
        "details": "If the par value is a real number, it might have decimals. Get the amount of decimals the par value has"
      },
      "getRemainingCoupons(uint256)": {
        "details": "Get how many coupons remain to be redeemed for a specific bond",
        "params": {
          "bond": "The bond id to analyze"
        }
      },
      "getSimpleInterest()": {
        "details": "Get how much money is redeemed on a coupon"
      },
      "getTerm()": {
        "details": "Get how much time it takes for a bond to mature"
      },
      "getTimesToRedeem()": {
        "details": "Get how many times coupons can be redeemed for bonds"
      },
      "getTokenAddress()": {
        "details": "Get the address of the token that is redeemed for coupons"
      },
      "getTokenToRedeem()": {
        "details": "Get the address of the token redeemed for coupons"
      },
      "getTotalBonds()": {
        "details": "Get the total amount of bonds issued"
      },
      "getTotalDebt()": {
        "details": "Get the current unpaid debt"
      },
      "mintBond(address,uint256)": {
        "params": {
          "_bondsAmount": "How many bonds to mint",
          "buyer": "The buyer of the bonds"
        }
      },
      "owner()": {
        "details": "Returns the address of the current owner."
      },
      "redeemCoupons(uint256[])": {
        "params": {
          "_bonds": "An array of bond ids corresponding to the bonds you want to redeem apon"
        }
      },
      "renounceOwnership()": {
        "details": "Leaves the contract without owner. It will not be possible to call `onlyOwner` functions anymore. Can only be called by the current owner. NOTE: Renouncing ownership will leave the contract without an owner, thereby removing any functionality that is only available to the owner."
      },
      "transfer(address,uint256[])": {
        "params": {
          "_bonds": "The ids of the bonds that you want to transfer",
          "receiver": "The receiver of the bonds"
        }
      },
      "transferOwnership(address)": {
        "details": "Transfers ownership of the contract to a new account (`newOwner`). Can only be called by the current owner."
      }
    },
    "version": 1
  },
  "userdoc": {
    "kind": "user",
    "methods": {
      "changeLoopLimit(uint256)": {
        "notice": "Change the number of elements you can loop through in this contract"
      },
      "donate()": {
        "notice": "Donate money to this contract"
      },
      "mintBond(address,uint256)": {
        "notice": "Mint bonds to a new buyer"
      },
      "redeemCoupons(uint256[])": {
        "notice": "Redeem coupons on your bonds"
      },
      "transfer(address,uint256[])": {
        "notice": "Transfer bonds to another address"
      }
    },
    "version": 1
  }
}